{
  "contractName": "GarbageContract",
  "abi": [
    {
      "constant": false,
      "inputs": [],
      "name": "addEther",
      "outputs": [
        {
          "name": "",
          "type": "bool"
        }
      ],
      "payable": true,
      "stateMutability": "payable",
      "type": "function"
    },
    {
      "constant": false,
      "inputs": [
        {
          "name": "Samount",
          "type": "uint256"
        }
      ],
      "name": "sendEther",
      "outputs": [],
      "payable": true,
      "stateMutability": "payable",
      "type": "function"
    },
    {
      "constant": true,
      "inputs": [],
      "name": "getAmount",
      "outputs": [
        {
          "name": "",
          "type": "uint256"
        }
      ],
      "payable": false,
      "stateMutability": "view",
      "type": "function"
    }
  ],
  "bytecode": "0x60806040526000805534801561001457600080fd5b5061016f806100246000396000f300608060405260043610610057576000357c0100000000000000000000000000000000000000000000000000000000900463ffffffff1680638894dd2b1461005c578063d321fe291461007e578063f88d331a146100a9575b600080fd5b6100646100c9565b604051808215151515815260200191505060405180910390f35b34801561008a57600080fd5b506100936100e1565b6040518082815260200191505060405180910390f35b6100c7600480360381019080803590602001909291905050506100ea565b005b60003460008082825401925050819055506001905090565b60008054905090565b3273ffffffffffffffffffffffffffffffffffffffff166108fc829081150290604051600060405180830381858888f19350505050158015610130573d6000803e3d6000fd5b50806000808282540392505081905550505600a165627a7a7230582098073bff7ad428977a50437af1eafe76fa4ea8f3988f02fe4e79fe54f5387b080029",
  "source": "pragma solidity ^0.4.24;\n\ncontract GarbageContract {\n    uint amount = 0;\n\n    function addEther() public payable returns(bool) {\n        amount+=msg.value;\n        return true;\n    }\n\n    function sendEther(uint Samount) public payable {\n        tx.origin.transfer(Samount);\n        amount-=Samount;\n    }\n\n    function getAmount() public view returns(uint) {\n        return amount;\n    }\n}\n",
  "sourcePath": "/home/akshay/Documents/bc/BlockDust/my-app/src/client/blockchain/contracts/GarbageContract.sol",
  "compiler": {
    "name": "solc",
    "version": "0.4.24+commit.e67f0147.Emscripten.clang"
  },
  "schemaVersion": "2.0.1",
  "updatedAt": "2018-08-18T03:56:26.254Z"
}