{
  "contractName": "MovieContract",
  "abi": [
    {
      "constant": false,
      "inputs": [
        {
          "name": "id",
          "type": "string"
        },
        {
          "name": "Moviename",
          "type": "string"
        },
        {
          "name": "MovieDescription",
          "type": "string"
        },
        {
          "name": "DirectorName",
          "type": "string"
        }
      ],
      "name": "addMovie",
      "outputs": [
        {
          "name": "",
          "type": "bool"
        }
      ],
      "payable": false,
      "stateMutability": "nonpayable",
      "type": "function"
    },
    {
      "constant": false,
      "inputs": [
        {
          "name": "id",
          "type": "string"
        },
        {
          "name": "rating",
          "type": "uint256"
        }
      ],
      "name": "rate",
      "outputs": [
        {
          "name": "",
          "type": "uint256"
        }
      ],
      "payable": false,
      "stateMutability": "nonpayable",
      "type": "function"
    },
    {
      "constant": true,
      "inputs": [
        {
          "name": "id",
          "type": "string"
        }
      ],
      "name": "getRating",
      "outputs": [
        {
          "name": "",
          "type": "uint256"
        }
      ],
      "payable": false,
      "stateMutability": "view",
      "type": "function"
    }
  ],
  "bytecode": "0x608060405234801561001057600080fd5b506109a6806100206000396000f300608060405260043610610057576000357c0100000000000000000000000000000000000000000000000000000000900463ffffffff1680637bf359e51461005c5780638f70d440146100e3578063f8326a5e14610236575b600080fd5b34801561006857600080fd5b506100cd600480360381019080803590602001908201803590602001908080601f0160208091040260200160405190810160405280939291908181526020018383808284378201915050505050509192919290803590602001909291905050506102b3565b6040518082815260200191505060405180910390f35b3480156100ef57600080fd5b5061021c600480360381019080803590602001908201803590602001908080601f0160208091040260200160405190810160405280939291908181526020018383808284378201915050505050509192919290803590602001908201803590602001908080601f0160208091040260200160405190810160405280939291908181526020018383808284378201915050505050509192919290803590602001908201803590602001908080601f0160208091040260200160405190810160405280939291908181526020018383808284378201915050505050509192919290803590602001908201803590602001908080601f01602080910402602001604051908101604052809392919081815260200183838082843782019150505050505091929192905050506105e1565b604051808215151515815260200191505060405180910390f35b34801561024257600080fd5b5061029d600480360381019080803590602001908201803590602001908080601f016020809104026020016040519081016040528093929190818152602001838380828437820191505050505050919291929050505061085e565b6040518082815260200191505060405180910390f35b600080826000856040518082805190602001908083835b6020831015156102ef57805182526020820191506020810190506020830392506102ca565b6001836020036101000a0380198251168184511680821785525050505050509050019150509081526020016040518091039020600401546000866040518082805190602001908083835b60208310151561035e5780518252602082019150602081019050602083039250610339565b6001836020036101000a0380198251168184511680821785525050505050509050019150509081526020016040518091039020600301540201905060016000856040518082805190602001908083835b6020831015156103d357805182526020820191506020810190506020830392506103ae565b6001836020036101000a038019825116818451168082178552505050505050905001915050908152602001604051809103902060040154016000856040518082805190602001908083835b602083101515610443578051825260208201915060208101905060208303925061041e565b6001836020036101000a0380198251168184511680821785525050505050509050019150509081526020016040518091039020600401819055506000846040518082805190602001908083835b6020831015156104b55780518252602082019150602081019050602083039250610490565b6001836020036101000a038019825116818451168082178552505050505050905001915050908152602001604051809103902060040154818115156104f657fe5b046000856040518082805190602001908083835b60208310151561052f578051825260208201915060208101905060208303925061050a565b6001836020036101000a0380198251168184511680821785525050505050509050019150509081526020016040518091039020600301819055506000846040518082805190602001908083835b6020831015156105a1578051825260208201915060208101905060208303925061057c565b6001836020036101000a03801982511681845116808217855250505050505090500191505090815260200160405180910390206003015491505092915050565b6000836000866040518082805190602001908083835b60208310151561061c57805182526020820191506020810190506020830392506105f7565b6001836020036101000a038019825116818451168082178552505050505050905001915050908152602001604051809103902060000190805190602001906106659291906108d5565b50826000866040518082805190602001908083835b60208310151561069f578051825260208201915060208101905060208303925061067a565b6001836020036101000a038019825116818451168082178552505050505050905001915050908152602001604051809103902060010190805190602001906106e89291906108d5565b50816000866040518082805190602001908083835b60208310151561072257805182526020820191506020810190506020830392506106fd565b6001836020036101000a0380198251168184511680821785525050505050509050019150509081526020016040518091039020600201908051906020019061076b9291906108d5565b50600080866040518082805190602001908083835b6020831015156107a55780518252602082019150602081019050602083039250610780565b6001836020036101000a038019825116818451168082178552505050505050905001915050908152602001604051809103902060030181905550600080866040518082805190602001908083835b60208310151561081857805182526020820191506020810190506020830392506107f3565b6001836020036101000a03801982511681845116808217855250505050505090500191505090815260200160405180910390206004018190555060019050949350505050565b600080826040518082805190602001908083835b6020831015156108975780518252602082019150602081019050602083039250610872565b6001836020036101000a0380198251168184511680821785525050505050509050019150509081526020016040518091039020600301549050919050565b828054600181600116156101000203166002900490600052602060002090601f016020900481019282601f1061091657805160ff1916838001178555610944565b82800160010185558215610944579182015b82811115610943578251825591602001919060010190610928565b5b5090506109519190610955565b5090565b61097791905b8082111561097357600081600090555060010161095b565b5090565b905600a165627a7a72305820550de5e6aea1baf70155ce1380d60d515fbf880d52e5fa3a163d946c0379342a0029",
  "source": "pragma solidity ^0.4.24;\n\ncontract MovieContract {\n    struct movie {\n        string MovieName;\n        string MovieDescription;\n        string DirectorName;\n        uint rating;\n        uint ratingCount;\n        \n    }\n    mapping(string => movie) movies;\n    \n    function addMovie(string id, string Moviename, string MovieDescription, string DirectorName) public returns(bool){\n        movies[id].MovieName = Moviename;\n        movies[id].MovieDescription = MovieDescription;\n        movies[id].DirectorName = DirectorName;\n        movies[id].rating = 0;\n        movies[id].ratingCount = 0;\n        return true;\n    }\n    function rate(string id, uint rating) public returns(uint) {\n        uint newRating = movies[id].rating*movies[id].ratingCount + rating;\n        movies[id].ratingCount = movies[id].ratingCount + 1;\n        movies[id].rating = newRating/movies[id].ratingCount;\n        return movies[id].rating;\n        \n    }\n    function getRating(string id) public view returns(uint) {\n        return movies[id].rating;\n    }\n    \n}\n",
  "sourcePath": "/home/akshay/Documents/bc/my-app/src/client/blockchain/contracts/MovieContract.sol",
  "compiler": {
    "name": "solc",
    "version": "0.4.24+commit.e67f0147.Emscripten.clang"
  },
  "schemaVersion": "2.0.1",
  "updatedAt": "2018-08-16T20:03:15.484Z"
}